:1000000031C0E3C1F6C149C048C047C046C045C081
:1000100044C043C042C041C040C03FC03EC03DC0DC
:1000200060C13BC03AC039C038C037C036C035C0E7
:1000300034C033C000000000000000001010101099
:100040001010100018181818181818001C1C1C1C68
:100050001C1C1C001E1E1E1E1E1E1E001F1F1F1FFE
:100060001F1F1F0011241FBECFEFD4E0DEBFCDBF86
:1000700011E0A0E0B1E0EAEBF5E002C005900D92DE
:10008000A632B107D9F721E0A6E2B1E001C01D9286
:10009000AC32B207E1F719D28EC2B2CF982F907F5F
:1000A00095B9289A2A9AEFECF7E03197F1F700C05A
:1000B00000002A982898EFECF7E03197F1F700C09C
:1000C0000000F0E18F9FC001112485B9289A2A9A77
:1000D0008FEC97E00197F1F700C000002A9828986C
:1000E000EFECF7E03197F1F700C000000895982F8A
:1000F000907F95B92A9AEFECF7E03197F1F700C0BD
:1001000000002A98EFECF7E03197F1F700C000000B
:10011000F0E18F9FC001112485B92A9A8FEC97E0F6
:100120000197F1F700C000002A98EFECF7E0319753
:10013000F1F700C00000089581E0D9CFEF92FF925F
:100140001F93CF93DF931F92CDB7DEB7009769F06F
:10015000182F7C018E2D811B861738F4F7018191B1
:100160007F0169839BDF6981F5CF0F90DF91CF918C
:100170001F91FF90EF900895623031F0633031F0BD
:10018000613029F4805C03C08C5E01C08C5A8068A9
:10019000AECFEF92FF920F931F93CF93DF937C012B
:1001A00088E0689FB0011124162F1064C0E0D0E0F1
:1001B000F701EC0FFD1F04918C2F810F98DF802F2A
:1001C0006DDF2196C830D10599F7DF91CF911F914E
:1001D0000F91FF90EF9008951F93CF93DF938FE2DD
:1001E00095E70197F1F700C0000015B815B884B184
:1001F000806F84B984B1876084B980E385B92A9A15
:10020000EFECF7E03197F1F700C000002A98EFEC2F
:10021000F7E03197F1F700C0000085B92A9A8FEC1A
:1002200097E00197F1F700C000002A98EFECF7E0A3
:100230003197F1F700C0000080E285B92A9A8FEC6F
:1002400097E00197F1F700C000002A98EFECF7E083
:100250003197F1F700C0000088E249DF8CE047DF0A
:10026000C4E3D0E060E011E0160FCE0192DF2896E3
:10027000612F1830C1F7DF91CF911F910895CF936F
:10028000DF93EC016230C1F018F46130F9F026C060
:10029000633041F0643011F568EE73E078D180E3AB
:1002A000860FFCDECE0164E670E071D1CB016AE01E
:1002B00070E06DD1805DF2DE2AE030E0CE01B90160
:1002C00066D1CB01B90163D1805DE8DECE016AE081
:1002D00070E05DD1805DDF91CF91E0CEDF91CF9175
:1002E00008951F920F920FB60F9211242F933F93F0
:1002F0008F939F93EF93FF93809100019091010161
:1003000001969093010180930001209126012F5FB7
:10031000209326014C994EC0209102013091030197
:100320008217930708F446C080912601873C09F0A4
:1003300041C0F89480912901882371F080912A01AD
:1003400081110AC0E0912B0181E08E0F80932B0177
:10035000F0E0EC5FFE4F11C080912A01882381F00C
:100360008091290181110CC0E0912B0181E08E0F59
:1003700080932B01F0E0E85FFE4F808188B901C0D7
:1003800018B84C9B05C018B81092290110922A0188
:1003900080912B01843010F010922B018091260166
:1003A000883C10F010922601109201011092000179
:1003B00016BC7894FF91EF919F918F913F912F916F
:1003C0000F900FBE0F901F9018951F920F920FB6AF
:1003D0000F9211248F9381E08093290110922A01BA
:1003E0004C99109229018F910F900FBE0F901F9082
:1003F00018951F920F920FB60F9211248F9381E0E0
:1004000080932A01109229014C9910922A018F9110
:100410000F900FBE0F901F90189580917A00806406
:1004200080937A0080917A0086FDFCCF80917800DD
:100430009091790090930301809302012091020131
:10044000309103018FEF93E0821B930B0895CF93BC
:10045000DF93EC0160E080E08FDE6FE08CE091E004
:100460006DDE61E080E088DE65E08CE191E066DED3
:1004700061E087E081DE64E0CE0101DF61E08CE0D5
:100480007BDE65E082E291E0DF91CF9157CE8EE195
:1004900087B981E088B91AB883E38BB986E880937D
:1004A0007A0010927C008AE08093690083E08DBB23
:1004B0008CBB1092680085B5826085BD16BCEEE6E7
:1004C000F0E08081816080830895E1DF85DE34DEA5
:1004D00015B87894CCE4D4E04D9906C0809102011F
:1004E000909103019ADF4CC08091270190912801DF
:1004F000AEDF48991EC08091020190910301892BC3
:10050000C1F080912701909128018C34944089F0AA
:100510008091020190910301845691099093030107
:100520008093020180912701909128018C599F4F5F
:100530001FC0499927C080910201909103018D3419
:10054000944000F58091270190912801892BD1F0EA
:1005500080910201909103018C599F4F9093030168
:10056000809302018091270190912801845691097E
:100570009093280180932701809127019091280171
:1005800066DFAACFD0930301C0930201A5CFAA1BB7
:10059000BB1B51E107C0AA1FBB1FA617B70710F06E
:1005A000A61BB70B881F991F5A95A9F780959095A0
:0A05B000BC01CD010895F894FFCFBF
:1005BA0001004C0410080402020408102053746558
:1005CA007070696E67206D6F746F72005370656525
:0605DA00640052504D00C8
:00000001FF
