:1000000019C083C032C031C030C02FC02EC02DC037
:100010002CC02BC02AC029C028C027C026C025C09C
:1000200025C023C022C021C020C01FC01EC01DC0CB
:100030001CC01BC011241FBECFEFD4E0DEBFCDBF5C
:1000400011E0A0E0B1E0E4E9F1E002C005900D921A
:10005000A630B107D9F721E0A6E0B1E001C01D92BA
:10006000AB30B207E1F762D093C0CACF1F920F92B4
:100070000FB60F9211242F933F938F939F93EF937B
:10008000FF938091000190910101019690930101ED
:100090008093000120910701309108018217930796
:1000A00048F1F894809106018F5F8093060180915A
:1000B0000A01882361F0E091090181E08E0F8093AD
:1000C0000901F0E0EE5FFE4F808185B901C015B8EF
:1000D00080910901843010F010920901809106018D
:1000E000813210F010920A01109201011092000169
:1000F00016BC7894FF91EF919F918F913F912F9132
:100100000F900FBE0F901F9018951F920F920FB671
:100110000F9211248F9381E080930A01809306014E
:100120008F910F900FBE0F901F9018958FE084B99C
:1001300015B886E880937A0010927C008AE080935C
:10014000690083E08DBB8CBB1092680084B582602F
:1001500084BD16BCEEE6F0E08081816080838AE099
:1001600090E090930801809307017894EAE7F0E02B
:10017000A8E7B0E0808180648083808186FDFDCF28
:100180008D919C9111979093080180930701F2CF74
:04019000F894FFCF11
:0601940001000102040855
:00000001FF
